{
  "_format": "hh-sol-artifact-1",
  "contractName": "DemoTransactions",
  "sourceName": "contracts/DemoTransactions.sol",
  "abi": [
    {
      "anonymous": false,
      "inputs": [
        {
          "indexed": true,
          "internalType": "address",
          "name": "from",
          "type": "address"
        },
        {
          "indexed": true,
          "internalType": "address",
          "name": "to",
          "type": "address"
        },
        {
          "indexed": false,
          "internalType": "uint256",
          "name": "amount",
          "type": "uint256"
        }
      ],
      "name": "Transfer",
      "type": "event"
    },
    {
      "inputs": [
        {
          "internalType": "address",
          "name": "",
          "type": "address"
        }
      ],
      "name": "balances",
      "outputs": [
        {
          "internalType": "uint256",
          "name": "",
          "type": "uint256"
        }
      ],
      "stateMutability": "view",
      "type": "function"
    },
    {
      "inputs": [],
      "name": "deposit",
      "outputs": [],
      "stateMutability": "payable",
      "type": "function"
    },
    {
      "inputs": [
        {
          "internalType": "address",
          "name": "account",
          "type": "address"
        }
      ],
      "name": "getBalance",
      "outputs": [
        {
          "internalType": "uint256",
          "name": "",
          "type": "uint256"
        }
      ],
      "stateMutability": "view",
      "type": "function"
    },
    {
      "inputs": [
        {
          "internalType": "address",
          "name": "to",
          "type": "address"
        },
        {
          "internalType": "uint256",
          "name": "amount",
          "type": "uint256"
        }
      ],
      "name": "transfer",
      "outputs": [],
      "stateMutability": "nonpayable",
      "type": "function"
    },
    {
      "inputs": [
        {
          "internalType": "uint256",
          "name": "amount",
          "type": "uint256"
        }
      ],
      "name": "withdraw",
      "outputs": [],
      "stateMutability": "nonpayable",
      "type": "function"
    }
  ],
  "bytecode": "0x608060405234801561001057600080fd5b506108c1806100206000396000f3fe60806040526004361061004a5760003560e01c806327e235e31461004f5780632e1a7d4d1461008c578063a9059cbb146100b5578063d0e30db0146100de578063f8b2cb4f146100e8575b600080fd5b34801561005b57600080fd5b50610076600480360381019061007191906105a5565b610125565b60405161008391906105eb565b60405180910390f35b34801561009857600080fd5b506100b360048036038101906100ae9190610632565b61013d565b005b3480156100c157600080fd5b506100dc60048036038101906100d7919061065f565b61025d565b005b6100e6610460565b005b3480156100f457600080fd5b5061010f600480360381019061010a91906105a5565b6104fa565b60405161011c91906105eb565b60405180910390f35b60006020528060005260406000206000915090505481565b806000803373ffffffffffffffffffffffffffffffffffffffff1673ffffffffffffffffffffffffffffffffffffffff1681526020019081526020016000205410156101be576040517f08c379a00000000000000000000000000000000000000000000000000000000081526004016101b5906106fc565b60405180910390fd5b806000803373ffffffffffffffffffffffffffffffffffffffff1673ffffffffffffffffffffffffffffffffffffffff168152602001908152602001600020600082825461020c919061074b565b925050819055503373ffffffffffffffffffffffffffffffffffffffff166108fc829081150290604051600060405180830381858888f19350505050158015610259573d6000803e3d6000fd5b5050565b806000803373ffffffffffffffffffffffffffffffffffffffff1673ffffffffffffffffffffffffffffffffffffffff1681526020019081526020016000205410156102de576040517f08c379a00000000000000000000000000000000000000000000000000000000081526004016102d5906106fc565b60405180910390fd5b600073ffffffffffffffffffffffffffffffffffffffff168273ffffffffffffffffffffffffffffffffffffffff160361034d576040517f08c379a0000000000000000000000000000000000000000000000000000000008152600401610344906107cb565b60405180910390fd5b806000803373ffffffffffffffffffffffffffffffffffffffff1673ffffffffffffffffffffffffffffffffffffffff168152602001908152602001600020600082825461039b919061074b565b92505081905550806000808473ffffffffffffffffffffffffffffffffffffffff1673ffffffffffffffffffffffffffffffffffffffff16815260200190815260200160002060008282546103f091906107eb565b925050819055508173ffffffffffffffffffffffffffffffffffffffff163373ffffffffffffffffffffffffffffffffffffffff167fddf252ad1be2c89b69c2b068fc378daa952ba7f163c4a11628f55a4df523b3ef8360405161045491906105eb565b60405180910390a35050565b600034116104a3576040517f08c379a000000000000000000000000000000000000000000000000000000000815260040161049a9061086b565b60405180910390fd5b346000803373ffffffffffffffffffffffffffffffffffffffff1673ffffffffffffffffffffffffffffffffffffffff16815260200190815260200160002060008282546104f191906107eb565b92505081905550565b60008060008373ffffffffffffffffffffffffffffffffffffffff1673ffffffffffffffffffffffffffffffffffffffff168152602001908152602001600020549050919050565b600080fd5b600073ffffffffffffffffffffffffffffffffffffffff82169050919050565b600061057282610547565b9050919050565b61058281610567565b811461058d57600080fd5b50565b60008135905061059f81610579565b92915050565b6000602082840312156105bb576105ba610542565b5b60006105c984828501610590565b91505092915050565b6000819050919050565b6105e5816105d2565b82525050565b600060208201905061060060008301846105dc565b92915050565b61060f816105d2565b811461061a57600080fd5b50565b60008135905061062c81610606565b92915050565b60006020828403121561064857610647610542565b5b60006106568482850161061d565b91505092915050565b6000806040838503121561067657610675610542565b5b600061068485828601610590565b92505060206106958582860161061d565b9150509250929050565b600082825260208201905092915050565b7f4e6f7420656e6f7567682062616c616e63650000000000000000000000000000600082015250565b60006106e660128361069f565b91506106f1826106b0565b602082019050919050565b60006020820190508181036000830152610715816106d9565b9050919050565b7f4e487b7100000000000000000000000000000000000000000000000000000000600052601160045260246000fd5b6000610756826105d2565b9150610761836105d2565b92508282039050818111156107795761077861071c565b5b92915050565b7f496e76616c696420726563697069656e74000000000000000000000000000000600082015250565b60006107b560118361069f565b91506107c08261077f565b602082019050919050565b600060208201905081810360008301526107e4816107a8565b9050919050565b60006107f6826105d2565b9150610801836105d2565b92508282019050808211156108195761081861071c565b5b92915050565b7f53656e6420736f6d652045544800000000000000000000000000000000000000600082015250565b6000610855600d8361069f565b91506108608261081f565b602082019050919050565b6000602082019050818103600083015261088481610848565b905091905056fea2646970667358221220d43fc3c6c5510e1c64b71f7414a2dd6b6a0db4b4f0beb0eb48404434273eadd264736f6c63430008140033",
  "linkReferences": {},
  "deployedLinkReferences": {}
}